{
  "contractName": "Patient",
  "abi": [
    {
      "constant": true,
      "inputs": [
        {
          "internalType": "address",
          "name": "",
          "type": "address"
        }
      ],
      "name": "allPatients",
      "outputs": [
        {
          "internalType": "uint256",
          "name": "id",
          "type": "uint256"
        },
        {
          "internalType": "int256",
          "name": "age",
          "type": "int256"
        },
        {
          "internalType": "string",
          "name": "name",
          "type": "string"
        },
        {
          "internalType": "string",
          "name": "gender",
          "type": "string"
        },
        {
          "internalType": "string",
          "name": "bloodGroup",
          "type": "string"
        },
        {
          "internalType": "address",
          "name": "toAddress",
          "type": "address"
        }
      ],
      "payable": false,
      "stateMutability": "view",
      "type": "function"
    },
    {
      "constant": true,
      "inputs": [],
      "name": "patientCount",
      "outputs": [
        {
          "internalType": "uint256",
          "name": "",
          "type": "uint256"
        }
      ],
      "payable": false,
      "stateMutability": "view",
      "type": "function"
    },
    {
      "constant": false,
      "inputs": [
        {
          "internalType": "address",
          "name": "_patientAddress",
          "type": "address"
        }
      ],
      "name": "setPatientId",
      "outputs": [],
      "payable": false,
      "stateMutability": "nonpayable",
      "type": "function"
    },
    {
      "constant": false,
      "inputs": [
        {
          "internalType": "int256",
          "name": "age",
          "type": "int256"
        },
        {
          "internalType": "string",
          "name": "name",
          "type": "string"
        },
        {
          "internalType": "string",
          "name": "gender",
          "type": "string"
        },
        {
          "internalType": "string",
          "name": "bloodGroup",
          "type": "string"
        }
      ],
      "name": "addPatient",
      "outputs": [],
      "payable": false,
      "stateMutability": "nonpayable",
      "type": "function"
    },
    {
      "constant": false,
      "inputs": [
        {
          "internalType": "address",
          "name": "_address",
          "type": "address"
        }
      ],
      "name": "setVisibleToAddress",
      "outputs": [],
      "payable": false,
      "stateMutability": "nonpayable",
      "type": "function"
    },
    {
      "constant": true,
      "inputs": [],
      "name": "viewAllRecord",
      "outputs": [
        {
          "internalType": "string[]",
          "name": "",
          "type": "string[]"
        }
      ],
      "payable": false,
      "stateMutability": "view",
      "type": "function"
    },
    {
      "constant": false,
      "inputs": [
        {
          "internalType": "string",
          "name": "record",
          "type": "string"
        }
      ],
      "name": "addToRecords",
      "outputs": [],
      "payable": false,
      "stateMutability": "nonpayable",
      "type": "function"
    },
    {
      "constant": false,
      "inputs": [
        {
          "internalType": "uint256",
          "name": "index",
          "type": "uint256"
        },
        {
          "internalType": "address",
          "name": "_address",
          "type": "address"
        }
      ],
      "name": "changeVisibilityOfRecordAtIndices",
      "outputs": [],
      "payable": false,
      "stateMutability": "nonpayable",
      "type": "function"
    },
    {
      "constant": false,
      "inputs": [],
      "name": "resetVisiblity",
      "outputs": [],
      "payable": false,
      "stateMutability": "nonpayable",
      "type": "function"
    },
    {
      "constant": true,
      "inputs": [],
      "name": "getTotalNumberOfRecords",
      "outputs": [
        {
          "internalType": "uint256",
          "name": "",
          "type": "uint256"
        }
      ],
      "payable": false,
      "stateMutability": "view",
      "type": "function"
    },
    {
      "constant": true,
      "inputs": [
        {
          "internalType": "uint256",
          "name": "index",
          "type": "uint256"
        }
      ],
      "name": "viewAllowedRecord",
      "outputs": [
        {
          "internalType": "string",
          "name": "",
          "type": "string"
        }
      ],
      "payable": false,
      "stateMutability": "view",
      "type": "function"
    }
  ],
  "bytecode": "0x60806040526000805534801561001457600080fd5b50610f71806100246000396000f3fe608060405234801561001057600080fd5b50600436106100a95760003560e01c8063b59c551a11610071578063b59c551a14610111578063c3bd54d614610124578063c439ae9c1461012c578063cb38a37c1461013f578063cd25d7be1461015f578063d2a4591d14610184576100a9565b8063135f90e0146100ae5780633171a082146100cc5780633826621b146100e15780635f937237146100f6578063a0303c4114610109575b600080fd5b6100b6610197565b6040516100c39190610db9565b60405180910390f35b6100df6100da366004610cae565b610298565b005b6100e9610307565b6040516100c39190610ddb565b6100df610104366004610c5b565b610328565b6100e96103b1565b6100df61011f366004610bb2565b6103b7565b6100df6104c9565b6100df61013a366004610b8c565b610554565b61015261014d366004610c90565b610576565b6040516100c39190610dca565b61017261016d366004610b8c565b6106b2565b6040516100c396959493929190610de9565b6100df610192366004610b8c565b6108a3565b336000908152600260205260409020546060906001146101b657600080fd5b33600090815260016020908152604080832060060180548251818502810185019093528083529193909284015b8282101561028e5760008481526020908190208301805460408051601f600260001961010060018716150201909416939093049283018590048502810185019091528181529283018282801561027a5780601f1061024f5761010080835404028352916020019161027a565b820191906000526020600020905b81548152906001019060200180831161025d57829003601f168201915b5050505050815260200190600101906101e3565b5050505090505b90565b336000908152600260205260409020546001146102b457600080fd5b3360009081526001602052604090206007018054829190849081106102d557fe5b9060005260206000200160006101000a8154816001600160a01b0302191690836001600160a01b031602179055505050565b6003546001600160a01b031660009081526001602052604090206006015490565b3360009081526002602052604090205460011461034457600080fd5b3360009081526001602081815260408320600601805492830180825590845292819020845161037a9391909101918501906108f1565b505033600081815260016020818152604083206007018054928301815583529091200180546001600160a01b031916909117905550565b60005481565b6000805460010190556103c861096f565b336000818152600260208181526040808420600190819055845487528683018b81528783018b8152606089018b9052608089018a905296865281845291909420865181559051938101939093559251805185946104299385019201906108f1565b50606082015180516104459160038401916020909101906108f1565b50608082015180516104619160048401916020909101906108f1565b5060a08201516005820180546001600160a01b0319166001600160a01b0390921691909117905560c082015180516104a39160068401916020909101906109bd565b5060e082015180516104bf916007840191602090910190610a16565b5050505050505050565b336000908152600260205260409020546001146104e557600080fd5b60005b336000908152600160205260409020600601548110156105515733600081815260016020526040902060070180548390811061052057fe5b600091825260209091200180546001600160a01b0319166001600160a01b03929092169190911790556001016104e8565b50565b600380546001600160a01b0319166001600160a01b0392909216919091179055565b6003546001600160a01b03166000908152600160205260409020600701805460609190839081106105a357fe5b6000918252602090912001546001600160a01b0316331415610682576003546001600160a01b031660009081526001602052604090206006018054839081106105e857fe5b600091825260209182902001805460408051601f60026000196101006001871615020190941693909304928301859004850281018501909152818152928301828280156106765780601f1061064b57610100808354040283529160200191610676565b820191906000526020600020905b81548152906001019060200180831161065957829003601f168201915b505050505090506106ad565b506040805180820190915260128152715065726d697373696f6e2044656e6965642160701b60208201525b919050565b6001602052806000526040600020600091509050806000015490806001015490806002018054600181600116156101000203166002900480601f01602080910402602001604051908101604052809291908181526020018280546001816001161561010002031660029004801561076a5780601f1061073f5761010080835404028352916020019161076a565b820191906000526020600020905b81548152906001019060200180831161074d57829003601f168201915b5050505060038301805460408051602060026001851615610100026000190190941693909304601f81018490048402820184019092528181529495949350908301828280156107fa5780601f106107cf576101008083540402835291602001916107fa565b820191906000526020600020905b8154815290600101906020018083116107dd57829003601f168201915b5050505060048301805460408051602060026001851615610100026000190190941693909304601f810184900484028201840190925281815294959493509083018282801561088a5780601f1061085f5761010080835404028352916020019161088a565b820191906000526020600020905b81548152906001019060200180831161086d57829003601f168201915b505050600590930154919250506001600160a01b031686565b336000908152600260205260409020546001146108bf57600080fd5b33600090815260016020526040902060050180546001600160a01b0319166001600160a01b0392909216919091179055565b828054600181600116156101000203166002900490600052602060002090601f016020900481019282601f1061093257805160ff191683800117855561095f565b8280016001018555821561095f579182015b8281111561095f578251825591602001919060010190610944565b5061096b929150610a77565b5090565b604051806101000160405280600081526020016000815260200160608152602001606081526020016060815260200160006001600160a01b0316815260200160608152602001606081525090565b828054828255906000526020600020908101928215610a0a579160200282015b82811115610a0a57825180516109fa9184916020909101906108f1565b50916020019190600101906109dd565b5061096b929150610a91565b828054828255906000526020600020908101928215610a6b579160200282015b82811115610a6b57825182546001600160a01b0319166001600160a01b03909116178255602090920191600190910190610a36565b5061096b929150610ab4565b61029591905b8082111561096b5760008155600101610a7d565b61029591905b8082111561096b576000610aab8282610ad8565b50600101610a97565b61029591905b8082111561096b5780546001600160a01b0319168155600101610aba565b50805460018160011615610100020316600290046000825580601f10610afe5750610551565b601f0160209004906000526020600020908101906105519190610a77565b8035610b2781610f11565b92915050565b8035610b2781610f25565b600082601f830112610b4957600080fd5b8135610b5c610b5782610e7f565b610e58565b91508082526020830160208301858383011115610b7857600080fd5b610b83838284610ecb565b50505092915050565b600060208284031215610b9e57600080fd5b6000610baa8484610b1c565b949350505050565b60008060008060808587031215610bc857600080fd5b6000610bd48787610b2d565b945050602085013567ffffffffffffffff811115610bf157600080fd5b610bfd87828801610b38565b935050604085013567ffffffffffffffff811115610c1a57600080fd5b610c2687828801610b38565b925050606085013567ffffffffffffffff811115610c4357600080fd5b610c4f87828801610b38565b91505092959194509250565b600060208284031215610c6d57600080fd5b813567ffffffffffffffff811115610c8457600080fd5b610baa84828501610b38565b600060208284031215610ca257600080fd5b6000610baa8484610b2d565b60008060408385031215610cc157600080fd5b6000610ccd8585610b2d565b9250506020610cde85828601610b1c565b9150509250929050565b6000610cf48383610d81565b9392505050565b610d0481610eba565b82525050565b6000610d1582610ead565b610d1f8185610eb1565b935083602082028501610d3185610ea7565b8060005b85811015610d6b5784840389528151610d4e8582610ce8565b9450610d5983610ea7565b60209a909a0199925050600101610d35565b5091979650505050505050565b610d0481610295565b6000610d8c82610ead565b610d968185610eb1565b9350610da6818560208601610ed7565b610daf81610f07565b9093019392505050565b60208082528101610cf48184610d0a565b60208082528101610cf48184610d81565b60208101610b278284610d78565b60c08101610df78289610d78565b610e046020830188610d78565b8181036040830152610e168187610d81565b90508181036060830152610e2a8186610d81565b90508181036080830152610e3e8185610d81565b9050610e4d60a0830184610cfb565b979650505050505050565b60405181810167ffffffffffffffff81118282101715610e7757600080fd5b604052919050565b600067ffffffffffffffff821115610e9657600080fd5b506020601f91909101601f19160190565b60200190565b5190565b90815260200190565b60006001600160a01b038216610b27565b82818337506000910152565b60005b83811015610ef2578181015183820152602001610eda565b83811115610f01576000848401525b50505050565b601f01601f191690565b610f1a81610eba565b811461055157600080fd5b610f1a8161029556fea365627a7a72315820a68dc92fae41ccc41784dd9c56446a2efe367ae711431a31fa042010be1597b26c6578706572696d656e74616cf564736f6c63430005100040",
  "source": "pragma solidity 0.5.16;\npragma experimental ABIEncoderV2;\n\n// SPDX-License-Identifier: MIT\n\ncontract Patient{\n    uint256 public patientCount = 0;\n    mapping(address => PatientInfo) public allPatients;\n    mapping(address => int) existingAddress;\n    \n    address patientAddress; \n    \n    modifier onlyOwner(){\n        require(existingAddress[msg.sender] == 1);\n        _;\n    }\n    \n    modifier ownerAndDoctor(){\n        require(existingAddress[msg.sender] == 1 || allPatients[patientAddress].toAddress == msg.sender);\n        _;\n    }\n    \n    struct PatientInfo{\n        uint256 id;\n        int age;\n        string name;\n        string gender;\n        string bloodGroup;\n        address toAddress;\n        string [] records;\n        address [] visibileToAddress;\n    }\n    \n    \n    function setPatientId(address _patientAddress)public{\n        patientAddress = _patientAddress;\n    }\n    \n    function addPatient(int age, string memory name, string memory gender, string memory bloodGroup) public {\n        patientCount ++;\n        PatientInfo memory _patientInfo;\n        existingAddress[msg.sender] = 1;\n        _patientInfo.id = patientCount;\n        _patientInfo.age = age;\n        _patientInfo.name = name;\n        _patientInfo.gender = gender;\n        _patientInfo.bloodGroup = bloodGroup;\n        allPatients[msg.sender] = _patientInfo;\n        \n    }\n    \n    function setVisibleToAddress(address _address)public onlyOwner{\n        allPatients[msg.sender].toAddress = _address;\n    }\n    \n    function viewAllRecord() public view onlyOwner returns(string[] memory){\n        return allPatients[msg.sender].records;\n    }\n    \n    function addToRecords(string memory record) public onlyOwner{\n        \n            allPatients[msg.sender].records.push(record);\n            allPatients[msg.sender].visibileToAddress.push(msg.sender);\n            \n    }\n    \n    function changeVisibilityOfRecordAtIndices(uint index, address _address)public onlyOwner{\n        allPatients[msg.sender].visibileToAddress[index] = _address;\n    }\n    \n    function resetVisiblity()public onlyOwner{\n        for(uint i=0;i<allPatients[msg.sender].records.length;i++){\n            allPatients[msg.sender].visibileToAddress[i] = msg.sender ;\n        }\n    }\n    \n    function getTotalNumberOfRecords() public view returns(uint){\n        \n        return allPatients[patientAddress].records.length;\n    \n    }\n    \n    function viewAllowedRecord(uint index) public view returns(string memory){\n        \n    \n        if(msg.sender == allPatients[patientAddress].visibileToAddress[index])\n            return allPatients[patientAddress].records[index];\n        else\n            return 'Permission Denied!';\n            \n    \n }\n\n}",
  "sourcePath": "/Users/joelmathew/Desktop/Projects/Hackathons/Incubate IND - 2021/BlitzHacks/BlockChainCode/contracts/InfoExchange.sol",
  "compiler": {
    "name": "solc",
    "version": "0.5.16+commit.9c3226ce.Emscripten.clang"
  },
  "schemaVersion": "3.3.4",
  "updatedAt": "2021-02-27T17:03:17.170Z",
  "devdoc": {
    "methods": {}
  },
  "userdoc": {
    "methods": {}
  }
}